:020000040000FA
:100000000C9462000C948A000C948A000C948A0070
:100010000C948A000C948A000C948A000C948A0038
:100020000C948A000C948A000C948A000C948A0028
:100030000C948A000C948A000C948A000C948A0018
:100040000C9465090C948A000C9433090C940D09E6
:100050000C948A000C948A000C948A000C948A00F8
:100060000C948A000C948A000000000024002700F1
:100070002A0000000000250028002B0000000008D6
:10008000000201000003040700000000000000005F
:1000900000000000230026002900040404040404D6
:1000A0000404020202020202030303030303010227
:1000B00004081020408001020408102001020408F6
:1000C0001020AF0911241FBECFEFD8E0DEBFCDBF97
:1000D00011E0A0E0B1E0ECE7FFE102C005900D9275
:1000E000A83BB107D9F722E0A8EBB1E001C01D920F
:1000F000AE38B207E1F710E0C2E6D0E004C02197C5
:10010000FE010E94B60FC136D107C9F70E941B0A33
:100110000C94BC0F0C940000CF92DF92EF92FF92F0
:10012000CF93DF93C82F809169028C3009F45EC0B1
:1001300038F48B30F1F060E070E080EC9FE74FC066
:1001400085518230C0F7D09165026D2F70E0762F17
:10015000662766277F7780916602682B90E080E0B3
:100160000E94100E2DEC3CEC4CEC5DE30E94C70E9F
:1001700059C06091650270E090E080E00E94100E2E
:100180006B017C01D0916602D7FF0AC0AC019B01D4
:1001900060E070E080E89FEB0E94FD0C6B017C0149
:1001A000DF706D2F70E090E080E00E94120E2DEC69
:1001B0003CEC4CEC5DE30E94C70EA70196010E9447
:1001C000FE0CCC2361F026E636E646EE5FE30E94A5
:1001D000C70E20E030E040E052E40E94FE0CDF91C8
:1001E000CF91FF90EF90DF90CF900895D09165026E
:1001F0006D2F70E090E080E00E94100E6B017C019A
:10020000609166026F7070E090E080E00E94120ED4
:100210002DEC3CEC4CEC5DE30E94C70EA70196016F
:100220000E94FE0CD7FFCDCF9058CBCFCF92DF925C
:10023000EF92FF92CF93DF93B0916A02A0E0811119
:10024000AB2F80916B0290E0880F991FAC01405753
:100250005F4FC0907002D0907102E0907202F090F7
:10026000730230E020E0FA01C591D491E881B90130
:1002700090E080E0EB23EA130AC02F5F3F4F6C153C
:100280007D058E059F0578F36FEF7FEFCB01DF9142
:10029000CF91FF90EF90DF90CF900895AF92BF92F3
:1002A000CF92DF92EF92FF920F931F93CF93DF9342
:1002B0006C017B018B01040F151FEB015E01AE1871
:1002C000BF08C017D10759F06991D601ED91FC9193
:1002D0000190F081E02DC6010995892B79F7C501C0
:1002E000DF91CF911F910F91FF90EF90DF90CF9012
:1002F000BF90AF900895FC01538D448D252F30E0C1
:10030000842F90E0821B930B541710F0CF96089522
:1003100001970895FC01918D828D981761F0A28D4F
:10032000AE0FBF2FB11D5D968C91928D9F5F9F7315
:10033000928F90E008958FEF9FEF0895FC01918DCB
:10034000828D981731F0828DE80FF11D858D90E038
:1003500008958FEF9FEF0895FC01918D228D892FD5
:1003600090E0805C9F4F821B91098F7399270895BD
:1003700086EC91E00E94AC0121E0892B09F420E099
:10038000822F089580E090E0892B29F00E94B80127
:1003900081110C9400000895FC01A48DA80FB92FC1
:1003A000B11DA35ABF4F2C91848D90E001968F739D
:1003B0009927848FA689B7892C93A089B1898C91BC
:1003C000837080648C93938D848D981306C002880B
:1003D000F389E02D80818F7D80830895EF92FF92D5
:1003E0000F931F93CF93DF93EC0181E0888F9B8D58
:1003F0008C8D98131AC0E889F989808185FF15C012
:100400009FB7F894EE89FF896083E889F989808134
:100410008370806480839FBF81E090E0DF91CF9103
:100420001F910F91FF90EF900895F62E0B8D10E025
:100430000F5F1F4F0F731127E02E8C8D8E110CC094
:100440000FB607FCFACFE889F989808185FFF5CFDF
:10045000CE010E94CC01F1CFEB8DEC0FFD2FF11DF1
:10046000E35AFF4FF0829FB7F8940B8FEA89FB891C
:1004700080818062CFCFCF93DF93EC01888D88237A
:10048000B9F0AA89BB89E889F9898C9185FD03C0F7
:10049000808186FD0DC00FB607FCF7CF8C9185FFDC
:1004A000F2CF808185FFEDCFCE010E94CC01E9CF54
:1004B000DF91CF91089590E0FC01E458FF4F249123
:1004C000FC01E255FF4F3491FC01E656FF4FE491E9
:1004D000EE23C9F0222339F0233001F1A8F42130B2
:1004E00019F1223029F1F0E0EE0FFF1FEE58FF4F17
:1004F000A591B4918FB7F894EC91611126C0309515
:100500003E233C938FBF08952730A9F02830C9F0CF
:10051000243049F7809180008F7D03C08091800056
:100520008F7780938000DFCF84B58F7784BDDBCF5A
:1005300084B58F7DFBCF8091B0008F778093B00022
:10054000D2CF8091B0008F7DF9CF3E2BDACFCF9301
:10055000DF9390E0FC01E255FF4F249186569F4FB8
:10056000FC0184918823D1F090E0880F991FFC0151
:10057000E859FF4FA591B491FC01EE58FF4FC5918A
:10058000D491623071F49FB7F8943C91822F80959A
:1005900083238C93E8812E2B28839FBFDF91CF91FB
:1005A00008958FB7F894EC912E2B2C938FBFF6CF34
:1005B0003FB7F8948091B9019091BA01A091BB0125
:1005C000B091BC0126B5A89B05C02F3F19F001963C
:1005D000A11DB11D3FBFBA2FA92F982F8827BC019D
:1005E000CD01620F711D811D911D42E0660F771FC5
:1005F000881F991F4A95D1F708958F929F92AF92C5
:10060000BF92CF92DF92EF92FF924B015C010E946A
:10061000D8026B017C010E94D8026C197D098E09F9
:100620009F09683E734081059105A8F321E0821A75
:100630009108A108B10888EEC80E83E0D81EE11C1D
:10064000F11C81149104A104B10429F7FF90EF90EB
:10065000DF90CF90BF90AF909F908F900895CF92F2
:10066000DF92EF92FF920F931F93CF93DF93CDB75B
:10067000DEB7C054D1400FB6F894DEBF0FBECDBF79
:100680002FB7F8948091C2019091C301A091C40149
:10069000B091C5012FBF40916C0250916D026091E5
:1006A0006E0270916F028C019D01041B150B260BCD
:1006B000370BB901A801403D57406105710590F421
:1006C00080917402C05CDE4F0FB6F894DEBF0FBE9F
:1006D000CDBFDF91CF911F910F91FF90EF90DF90F1
:1006E000CF90089580936C0290936D02A0936E0258
:1006F000B0936F0210926702109266021092650228
:10070000109264021092630262E0809168020E947B
:10071000A70261E070E080E090E00E94FD0261E0ED
:10072000809168020E94A70260E0809168020E94A6
:100730005B02809169028551823020F58BE291E164
:100740000197F1F762E0809168020E94A702809110
:10075000750290E08230910538F0880F991F880F5C
:10076000991F05970197F1F7F89480E00E94160110
:100770006F3F7F4F8F4F9F4F61F4109274027894B8
:1007800080E0A0CF64E170E080E090E00E94FD0294
:10079000D9CF81E00E9416016F3F7F4F8F4F9F4F4F
:1007A00061F38E010F5F1F4F6E018FEBC81A8EEF42
:1007B000D80A780180E00E941601F70160837183F6
:1007C0008283938381E00E941601F701648375831D
:1007D00086839783F8E0EF0EF11CEC14FD0451F7CB
:1007E000789430E020E0F801C080D180E280F3808E
:1007F0004481558166817781FFEFCF16DF06EF06D2
:10080000FF0631F04F3F8FEF58076807780719F45C
:1008100010927402B5CFF90183E0F595E7958A95BA
:10082000E1F7ED59FD4F8081880FC416D506E60625
:10083000F70610F180832F5F3F4F085F1F4F28326C
:10084000310589F64091670220916302809164022C
:10085000280F3327331F80916502280F311D8091A7
:100860006602820F932F911D99274817190681F66A
:1008700081E08093740226CF8160DCCF089590E000
:1008800080E008954F925F926F927F928F929F9235
:10089000AF92BF92CF92DF92EF92FF920F93CF93DE
:1008A000DF93CDB7DEB728970FB6F894DEBF0FBE43
:1008B000CDBF6B017C0149015A0101110EC026E632
:1008C00036E646EE5FE30E94C70E20E030E040E0EF
:1008D00052E40E94FE0C6B017C0120E030E048E80D
:1008E00052E4C701B6010E94FD0C2AE939E949E941
:1008F0005FE30E94C70E2B013C0120E030E044E79B
:1009000052E4C701B6010E94FE0C9B01AC01C30179
:10091000B2010E94FE0C2B013C0122E133E840ECC5
:100920005DE3C501B4010E94C70E9B01AC01C30188
:10093000B2010E94FE0C20E030E040E05FE30E9444
:10094000C70E2B013C0120E030E04EE952E40E944A
:10095000C20E18160CF023C1A7019601C701B601FB
:100960000E94C70E2B013C01A5019401C501B401F1
:100970000E94C70E6D837E838F83988721E133E2C7
:1009800043E050E4C701B6010E94C70E29E134E8F4
:1009900049E252E40E94FD0C69837A838B839C8335
:1009A00026E13BE442E251E4C501B4010E94C70ED6
:1009B0009B01AC0169817A818B819C810E94FE0C34
:1009C00069837A838B839C8328E436E246E65EEB78
:1009D000C701B6010E94C70EA50194010E94C70E6F
:1009E0009B01AC0169817A818B819C810E94FE0C04
:1009F00069837A838B839C8320EE3FE040EE5BEB40
:100A0000C301B2010E94C70E9B01AC0169817A81CA
:100A10008B819C810E94FE0C69837A838B839C83EB
:100A200028EF37E840E65DEB6D817E818F81988508
:100A30000E94C70E9B01AC0169817A818B819C81E8
:100A40000E94FE0C69837A838B839C832CEA3DE0B1
:100A500041EA5AE3C301B2010E94C70EA501940105
:100A60000E94C70E9B01AC0169817A818B819C81B8
:100A70000E94FE0C69837A838B839C8328EC3FE879
:100A80004FE55AE3C701B6010E94C70E2D813E8192
:100A90004F8158850E94C70E9B01AC0169817A8104
:100AA0008B819C810E94FE0C69837A838B839C835B
:100AB00021EF3BE845E056EBC301B2010E94C70EAF
:100AC0002D813E814F8158850E94C70E9B01AC014C
:100AD00069817A818B819C810E94FE0C2B013C01F3
:100AE00020E030E040E551E4C501B4010E946A0D08
:100AF00087FF88C020E030E040EA52E4C701B60139
:100B00000E94C20E87FD7EC020E030E040EE52E43D
:100B1000C701B6010E946A0D18160CF4BDC0A501EC
:100B2000940160E070E080E591E40E94FD0C20E01B
:100B300030E040E85EE30E94C70E4B015C0120E01C
:100B400030E04EEB52E4C701B6010E94FD0C6B0190
:100B50007C0120E030E0A9010E94C20E18160CF0C2
:100B600048C0A701960160E070E088E891E40E9427
:100B7000FD0C2EE33DEE40E75DE30E94C70E0E94B0
:100B80003A0F9B01AC01C501B4010E94C70E9B0145
:100B9000AC01C301B2010E94FD0C2B013C0101110B
:100BA00010C020E030E040E052E4C301B2010E94F6
:100BB000FD0C26E838E34EE05FE30E94C70E2B01F0
:100BC0003C01C301B20128960FB6F894DEBF0FBEF8
:100BD000CDBFDF91CF910F91FF90EF90DF90CF903D
:100BE000BF90AF909F908F907F906F905F904F904D
:100BF000089520E030E048E851E4C701B6010E94C2
:100C0000FE0CB7CF20E030E04AEA52E4C501B4015F
:100C10000E94C20E18161CF620E030E040EA52E4B2
:100C2000C701B6010E94C20E87FDB9CF20E030E0B7
:100C30004EEA52E4C701B6010E946A0D18160CF480
:100C4000AECF20E030E04AEA52E4C501B4010E9490
:100C5000FD0C2DEC3CEC4CEC5DE30E94C70E4B010F
:100C60005C01A701960160E070E08EEA92E40E94C8
:100C7000FD0C2DEC3CEC4CE45EE30E94C70E9B01A6
:100C8000AC01C501B4010E94C70E9B01AC01C301B8
:100C9000B2010E94FE0C81CF20E030E04AEA52E42B
:100CA000C501B4010E94C20E18160CF4BFCF77CF55
:100CB000CF93DF93EC0160E08E810E945B0261E0E4
:100CC0008E810E945B0260E08E810E945B028BE855
:100CD00091E00197F1F7DF91CF910895CF92DF92E4
:100CE000EF92FF920F931F93CF93DF936C017C01E0
:100CF00087E0E80EF11CD0E0C0E0062F10E0B8015C
:100D00000C2E02C0759567950A94E2F76170F701A1
:100D100081917F010E945B022196C430D10579F751
:100D2000C601DF91CF911F910F91FF90EF90DF905F
:100D3000CF900C945806CF92DF92EF92FF920F93D0
:100D40001F93CF93DF93EC01F62E642F8C810E94CA
:100D50005B028D818F3F19F060E00E945B020F2DD6
:100D600010E08F8584FF25C06E0187E0C80ED11C7E
:100D7000F12CE12CB8010E2C02C0759567950A94F0
:100D8000E2F76170F60181916F010E945B02FFEF53
:100D9000EF1AFF0A88E0E816F10461F7CE01DF914F
:100DA000CF911F910F91FF90EF90DF90CF900C9417
:100DB0005806B80184E0759567958A95E1F7CE01EC
:100DC0000E946E066F2DCE01DF91CF911F910F9182
:100DD000FF90EF90DF90CF900C946E0640E0682F6C
:100DE00086E792E00C949B06CF93DF93823029F440
:100DF0009091850298609093850280938902109269
:100E00008A0280E480938B0280E180938C0280E5EB
:100E100080938D0261E080917A020E94A702809106
:100E20007B028F3F19F061E00E94A70261E0809190
:100E30007C020E94A702C6E7D2E09E0126573240FC
:100E40008091850284FD0BC084E090E021962817F4
:100E5000390744F461E08E810E94A702EECF88E05A
:100E600090E0F4CF8BE39DE00197F1F760E0809193
:100E70007A020E945B0260E080917C020E945B0229
:100E800080917B028F3F19F060E00E945B028091AD
:100E9000850284FD39C063E086E792E00E946E0619
:100EA000CBE4D6E4CE010197F1F763E086E792E068
:100EB0000E946E062197F1F763E086E792E00E94B8
:100EC0006E0683E592E00197F1F762E086E792E033
:100ED0000E946E068091850280620E94EE0684E088
:100EE000809386028CE00E94EE0681E00E94EE066E
:100EF0008BE39FE10197F1F782E08093870286E020
:100F0000DF91CF910C94EE0680620E94EE068BE496
:100F100096E40197F1F78091850280620E94EE06C7
:100F200083E592E00197F1F78091850280620E944B
:100F3000EE06D0CF90918902691710F06FEF690F1C
:100F4000E62FF0E0EA58FD4F9489890F80680C94F1
:100F5000EE0641E00E949B0681E090E00895FB01CF
:100F600001900020E9F73197AF01461B570BDC01D8
:100F7000ED91FC910280F381E02D09948F929F9274
:100F8000AF92BF92EF92FF920F931F93CF93DF9395
:100F9000CDB7DEB7A1970FB6F894DEBF0FBECDBFB9
:100FA0007C01FA01CB0119A2223008F42AE08E015B
:100FB0000F5D1F4F822E912CB12CA12CBF01A501DA
:100FC00094010E94940FF901CA016A300CF5605D2A
:100FD000D8016E938D01232B242B252B79F790E0DC
:100FE00080E0109721F0BD01C7010E94AF07A196D4
:100FF0000FB6F894DEBF0FBECDBFDF91CF911F912A
:101000000F91FF90EF90BF90AF909F908F900895B9
:10101000695CDECFCF93DF93BC0186EC91E00E9448
:10102000AF07EC016EE171E086EC91E00E94AF0742
:101030008C0F9D1FDF91CF9108952F923F924F9279
:101040005F926F927F928F929F92AF92BF92CF9258
:10105000DF92EF92FF921F93CF93DF93EC016A012F
:101060007B01722EAB019601CB01B6010E947A0F73
:1010700061E271E0811126C046015701E894B7F89A
:101080002FEF3FEF4FE75FE7C501B4010E947A0FF2
:1010900081110CC02FEF3FEF4FE75FE7C501B401AF
:1010A0000E946A0D65E271E0181664F02FEF3FEFC1
:1010B0004FE75FE4C701B6010E94C20E1816B4F4F0
:1010C00069E271E0CE01DF91CF911F91FF90EF9027
:1010D000DF90CF90BF90AF909F908F907F906F9058
:1010E0005F904F903F902F900C94AF072FEF3FEF02
:1010F0004FE75FECC701B6010E946A0D87FDE0CFA4
:1011000020E030E0A901C701B6010E946A0D312C30
:10111000212C87FF0DC0E881F9810190F081E02D3D
:101120006DE2CE0109951C01F7FAF094F7F8F094FE
:1011300010E060E070E080E09FE3711641F020E095
:1011400030E040E251E40E946F0D1F5FF6CFA7012F
:1011500096010E94FE0C2B013C010E94E10D4B0107
:101160005C012AE0BC01A401CE010E94BE077C0103
:10117000E20CF31C1123E1F1C501B4010E94100E31
:101180009B01AC01C301B2010E94FD0C4B015C014B
:10119000E881F9810190F081E02D6EE2CE010995A0
:1011A000E80EF91E115020F120E030E040E251E459
:1011B000C501B4010E94C70E2B013C010E94E10D44
:1011C0004B01B12CA12C2AE0B501A401CE010E9453
:1011D000BE07E80EF91EC501B4010E94100E9B0166
:1011E000AC01C301B2010E94FD0C4B015C01DACFDE
:1011F000C701DF91CF911F91FF90EF90DF90CF90CB
:10120000BF90AF909F908F907F906F905F904F9026
:101210003F902F9008950C94AF071F920F920FB636
:101220000F9211242F933F934F935F936F937F936C
:101230008F939F93AF93BF93EF93FF9386EC91E0CF
:101240000E94CC01FF91EF91BF91AF919F918F913F
:101250007F916F915F914F913F912F910F900FBEB2
:101260000F901F9018951F920F920FB60F92112496
:101270002F938F939F93EF93FF93E091D601F0917B
:10128000D7018081E091DC01F091DD0182FD1BC07E
:1012900090818091DF018F5F8F732091E001821731
:1012A00041F0E091DF01F0E0EA53FE4F958F80932B
:1012B000DF01FF91EF919F918F912F910F900FBEC2
:1012C0000F901F9018958081F4CF1F920F920FB648
:1012D0000F9211242F933F938F939F93AF93BF93BC
:1012E0008091C2019091C301A091C401B091C50148
:1012F0003091B80123E0230F2D3758F50196A11D39
:10130000B11D2093B8018093C2019093C301A093B3
:10131000C401B093C5018091B9019091BA01A09127
:10132000BB01B091BC010196A11DB11D8093B90113
:101330009093BA01A093BB01B093BC01BF91AF9150
:101340009F918F913F912F910F900FBE0F901F9003
:10135000189526E8230F0296A11DB11DD2CFCF9379
:10136000E6ECF1E01382128288EE93E0A0E0B0E0B8
:1013700084839583A683B78384E091E091838083FF
:1013800085EC90E09587848784EC90E0978786874A
:1013900080EC90E0918B808B81EC90E0938B828B42
:1013A00082EC90E0958B848B86EC90E0978B868B1B
:1013B000118E128E138E148EE6E7F2E013821282E3
:1013C00086E191E0918380838CE084838FEF858335
:1013D000CBE0C68386E0878385E0808784E08187D1
:1013E00083E082871386148615861686178681E029
:1013F0000E94F406A3E6B2E082E015968C9315975E
:101400001696CC931697E0EBF0E0E4911796EC93E8
:101410001797ECE9F0E0E4911896EC93189740E800
:101420005EE360E070E01D964D935D936D937C9359
:101430005097CF910895CF93DF93CDB7DEB728971C
:101440000FB6F894DEBF0FBECDBF789484B582602E
:1014500084BD84B5816084BD85B5826085BD85B558
:10146000816085BD80916E00816080936E001092D6
:101470008100809181008260809381008091810051
:1014800081608093810080918000816080938000E2
:101490008091B10084608093B1008091B000816040
:1014A0008093B00080917A00846080937A0080916C
:1014B0007A00826080937A0080917A0081608093C4
:1014C0007A0080917A00806880937A001092C1003F
:1014D00082E00E94F406E091D601F091D70182E00B
:1014E0008083E091D201F091D3011082E091D40188
:1014F000F091D5018FEC80831092DE01E091DA014A
:10150000F091DB0186E08083E091D801F091D90170
:10151000808180618083E091D801F091D901808140
:1015200088608083E091D801F091D9018081806842
:101530008083E091D801F091D90180818F7D8083F3
:101540008DE291E00E940A0861E088E00E94A70213
:1015500061E087E00E94A70261E08AE00E94A702A2
:1015600061E089E00E94A70261E08DE00E94A7028D
:1015700062E0809168020E94A7022FB7F8948091E0
:10158000C2019091C301A091C401B091C5012FBFC8
:10159000805D9740A109B10980936C0290936D0220
:1015A000A0936E02B0936F0287E38093750230E0E0
:1015B000232E30E0332E64E670E080E090E00E945D
:1015C000FD020E942F03882351F0809169028B3025
:1015D00030F08D3058F08551823008F466C0C12C4F
:1015E000D12C20ECE22E2FE7F22E1EC06091640277
:1015F00070E090E080E00E94120E2DEC3CEC4CEC90
:101600005DE30E94C70E6B017C016091630270E094
:1016100090E080E00E94120E9B01AC01C701B60170
:101620000E94FE0C6B017C010E942F03812C912CE7
:1016300090ECA92E9FE7B92E882329F080E00E9424
:101640008C004B015C010E942F03882309F43FC0EA
:1016500081E00E948C002B013C01A7019601C7018B
:10166000B6010E947A0F811110C0A5019401C50135
:10167000B4010E947A0F811108C0A3019201C30135
:10168000B2010E947A0F882349F189E391E00E9418
:101690000A082114310409F48ECF0E94B80188236E
:1016A00009F489CF0E94000086CF60916302709197
:1016B000640276276727762790E080E00E94100E6C
:1016C0002DEC3CEC4CEC5DE30E94C70EABCF412C03
:1016D000512C80EC682E8FE7782EBFCF01E0A70158
:1016E0009601C301B2010E94420469837A838B830D
:1016F0009C8300E0A7019601C501B4010E94420449
:101700006D837E838F83988769E571E086EC91E035
:101710000E940B0922E0B701A60186EC91E00E942D
:101720001D0864E671E086EC91E00E940B0968E612
:1017300071E086EC91E00E940B0922E0B501A40162
:1017400086EC91E00E941D0866E771E086EC91E06E
:101750000E940B0922E0B301A20186EC91E00E94F5
:101760001D086BE771E086EC91E00E940B0960E8D0
:1017700071E086EC91E00E940B0922E04D815E81D0
:101780006F81788586EC91E00E941D0866E771E024
:1017900086EC91E00E940B0922E049815A816B811D
:1017A0007C8186EC91E00E941D088DE891E00E940A
:1017B0000A0860E080E00E949A0761E971E086E72C
:1017C00092E00E940B0960E08AE00E949A0722E002
:1017D000B701A60186E792E00E941D0861E080E063
:1017E0000E949A076DE971E086E792E00E940B097A
:1017F00061E08AE00E949A0722E0B501A40186E731
:1018000092E00E941D0820E030E044E152E4C5016E
:10181000B4010E946A0D87FF13C061E088E00E9456
:101820005B0261E087E00E94A70260E087E00E941F
:101830005B0264E670E080E090E00E94FD0221C05F
:1018400020E030E044E152E4C501B4010E94C20E40
:1018500087FD7CC020E030E048E152E4C501B401DE
:101860000E946A0D18160CF471C060E088E00E94B6
:101870005B0261E087E00E94A70260E087E00E94CF
:101880005B0220E030E048E452E4C701B6010E9468
:101890006A0D87FF70C061E08AE00E945B0264E627
:1018A00070E080E090E00E94FD022FB7F8948091F4
:1018B000C2019091C301A091C401B091C5012FBF95
:1018C0004091BE015091BF016091C0017091C10172
:1018D0008C019D01041B150B260B370BB901A801C8
:1018E00041345F416105710508F472C08093BE0107
:1018F0009093BF01A093C001B093C10181E00E9409
:10190000EE068BE39FE10197F1F760E080E00E9433
:101910009A0769EA71E086E792E00E940B09F0906D
:10192000BD01F11064C061E089E00E945B0260E0EB
:101930008DE00E945B0268EE73E080E090E00E9420
:10194000FD0281E0F826F092BD01A3CE20E030E058
:1019500048E152E4C501B4010E94C20E18160CF011
:1019600090CF60E088E00E945B0261E087E00E9427
:10197000A70261E05BCF20E030E04CE552E4C70114
:10198000B6010E94C20E18166CF461E087E00E9456
:10199000A70261E087E00E945B0260E08AE00E94AB
:1019A0005B0283CF20E030E048E452E4C701B60197
:1019B0000E94C20E87FD79CF20E030E04CE552E472
:1019C000C701B6010E946A0D18160CF46ECFE5CF60
:1019D00060E089E00E945B0260E08DE00E945B02B3
:1019E00064E670E080E090E00E94FD0252CE60E08C
:1019F00089E00E945B0261E09BCF5058BB27AA2779
:101A00000E94150D0C94880E0E947A0E38F00E94E8
:101A1000810E20F039F49F3F19F426F40C94770ED0
:101A20000EF4E095E7FB0C94710EE92F0E94990EDD
:101A300058F3BA17620773078407950720F079F403
:101A4000A6F50C94BB0E0EF4E0950B2EBA2FA02D2C
:101A50000B01B90190010C01CA01A0011124FF275B
:101A6000591B99F0593F50F4503E68F11A16F04056
:101A7000A22F232F342F4427585FF3CF4695379555
:101A80002795A795F0405395C9F77EF41F16BA0B1A
:101A9000620B730B840BBAF09150A1F0FF0FBB1FC8
:101AA000661F771F881FC2F70EC0BA0F621F731F11
:101AB000841F48F4879577956795B795F7959E3F6E
:101AC00008F0B0CF9395880F08F09927EE0F9795FF
:101AD000879508950E944D0E08F481E008950E94B4
:101AE000830D0C94880E0E94810E58F00E947A0E8D
:101AF00040F029F45F3F29F00C94710E51110C94C1
:101B0000BC0E0C94770E0E94990E68F39923B1F3E2
:101B1000552391F3951B550BBB27AA276217730713
:101B2000840738F09F5F5F4F220F331F441FAA1FA7
:101B3000A9F335D00E2E3AF0E0E832D09150504063
:101B4000E695001CCAF72BD0FE2F29D0660F771F11
:101B5000881FBB1F261737074807AB07B0E809F0F7
:101B6000BB0B802DBF01FF2793585F4F3AF09E3F7C
:101B7000510578F00C94710E0C94BC0E5F3FE4F3A9
:101B8000983ED4F3869577956795B795F7959F5FBF
:101B9000C9F7880F911D9695879597F90895E1E00B
:101BA000660F771F881FBB1F621773078407BA076A
:101BB00020F0621B730B840BBA0BEE1F88F7E095C5
:101BC00008950E94A10E88F09F5798F0B92F992789
:101BD000B751B0F0E1F0660F771F881F991F1AF018
:101BE000BA95C9F714C0B13091F00E94BB0EB1E0B4
:101BF00008950C94BB0E672F782F8827B85F39F0B3
:101C0000B93FCCF3869577956795B395D9F73EF4B0
:101C100090958095709561957F4F8F4F9F4F089558
:101C2000E89409C097FB3EF4909580957095619576
:101C30007F4F8F4F9F4F9923A9F0F92F96E9BB272C
:101C40009395F695879577956795B795F111F8CFA8
:101C5000FAF4BB0F11F460FF1BC06F5F7F4F8F4F13
:101C60009F4F16C0882311F096E911C0772321F009
:101C70009EE8872F762F05C0662371F096E8862FA1
:101C800070E060E02AF09A95660F771F881FDAF7F8
:101C9000880F9695879597F90895990F0008550F25
:101CA000AA0BE0E8FEEF16161706E807F907C0F0E2
:101CB00012161306E407F50798F0621B730B840BEA
:101CC000950B39F40A2661F0232B242B252B21F4C4
:101CD00008950A2609F4A140A6958FEF811D811D64
:101CE000089597F99F6780E870E060E008959FEF9E
:101CF00080EC089500240A941616170618060906A3
:101D0000089500240A941216130614060506089571
:101D1000092E0394000C11F4882352F0BB0F40F4F9
:101D2000BF2B11F460FF04C06F5F7F4F8F4F9F4F39
:101D3000089557FD9058440F551F59F05F3F71F0BB
:101D40004795880F97FB991F61F09F3F79F0879522
:101D50000895121613061406551FF2CF4695F1DFAB
:101D600008C0161617061806991FF1CF869571053B
:101D7000610508940895E894BB2766277727CB016F
:101D800097F908950E944D0E08F48FEF08950E9470
:101D9000DA0E0C94880E0E947A0E38F00E94810EA2
:101DA00020F0952311F00C94710E0C94770E1124F1
:101DB0000C94BC0E0E94990E70F3959FC1F3950F81
:101DC00050E0551F629FF001729FBB27F00DB11DBF
:101DD000639FAA27F00DB11DAA1F649F6627B00D4F
:101DE000A11D661F829F2227B00DA11D621F739F38
:101DF000B00DA11D621F839FA00D611D221F749F46
:101E00003327A00D611D231F849F600D211D822F8C
:101E1000762F6A2F11249F5750409AF0F1F08823B3
:101E20004AF0EE0FFF1FBB1F661F771F881F9150E0
:101E30005040A9F79E3F510580F00C94710E0C9410
:101E4000BC0E5F3FE4F3983ED4F386957795679593
:101E5000B795F795E7959F5FC1F7FE2B880F911D0A
:101E60009695879597F9089519F416F40C94770EC2
:101E70000C947F0F0E94A10EB8F39923C9F3B6F317
:101E80009F57550B87FF0E948D0F0024A0E640EA64
:101E9000900180585695979528F4805C660F771FBF
:101EA000881F20F026173707480730F4621B730B92
:101EB000840B202931294A2BA695179407942025B5
:101EC00031254A2758F7660F771F881F20F02617FD
:101ED0003707480730F4620B730B840B200D311D5C
:101EE000411DA09581F7B901842F9158880F9695CF
:101EF000879508950E944D0E880B990B08959F3F7A
:101F000031F0915020F4879577956795B795880FB4
:101F1000911D9695879597F9089591505040660FB9
:101F2000771F881FD2F70895A1E21A2EAA1BBB1BA8
:101F3000FD010DC0AA1FBB1FEE1FFF1FA217B30795
:101F4000E407F50720F0A21BB30BE40BF50B661FAB
:101F5000771F881F991F1A9469F76095709580956F
:101F600090959B01AC01BD01CF010895EE0FFF1FBD
:101F70000590F491E02D0994F894FFCF0000000043
:101F8000EE014E017B013B02AC018A019E01000083
:101F90000000A9074E013F043E040D0A006E616E69
:101FA00000696E66006F7666004448547878207445
:101FB00065737421004661696C656420746F2072DA
:101FC0006561642066726F6D204448542073656EAD
:101FD000736F72210048756D69646974793A2000E5
:101FE0002025090054656D70657261747572653ADB
:101FF0002000202A432000202A46090048656174F9
:1020000020696E6465783A2000202A460048554DC4
:102010004944495459203A200054454D50455241B5
:1020200054203A2000526F746174696E67206567AE
:0420300067732000B2
:107E0000112484B714BE81FFF0D085E080938100F7
:107E100082E08093C00088E18093C10086E0809377
:107E2000C20080E18093C4008EE0C9D0259A86E02C
:107E300020E33CEF91E0309385002093840096BBD3
:107E4000B09BFECF1D9AA8958150A9F7CC24DD24C4
:107E500088248394B5E0AB2EA1E19A2EF3E0BF2EE7
:107E6000A2D0813461F49FD0082FAFD0023811F036
:107E7000013811F484E001C083E08DD089C08234E0
:107E800011F484E103C0853419F485E0A6D080C0E4
:107E9000853579F488D0E82EFF2485D0082F10E0AE
:107EA000102F00270E291F29000F111F8ED06801E7
:107EB0006FC0863521F484E090D080E0DECF843638
:107EC00009F040C070D06FD0082F6DD080E0C81688
:107ED00080E7D80618F4F601B7BEE895C0E0D1E017
:107EE00062D089930C17E1F7F0E0CF16F0E7DF06D8
:107EF00018F0F601B7BEE89568D007B600FCFDCFD4
:107F0000A601A0E0B1E02C9130E011968C91119780
:107F100090E0982F8827822B932B1296FA010C0160
:107F200087BEE89511244E5F5F4FF1E0A038BF0790
:107F300051F7F601A7BEE89507B600FCFDCF97BE46
:107F4000E89526C08437B1F42ED02DD0F82E2BD052
:107F50003CD0F601EF2C8F010F5F1F4F84911BD097
:107F6000EA94F801C1F70894C11CD11CFA94CF0C13
:107F7000D11C0EC0853739F428D08EE10CD085E9AC
:107F80000AD08FE07ACF813511F488E018D01DD067
:107F900080E101D065CF982F8091C00085FFFCCF94
:107FA0009093C60008958091C00087FFFCCF809118
:107FB000C00084FD01C0A8958091C6000895E0E648
:107FC000F0E098E1908380830895EDDF803219F02E
:107FD00088E0F5DFFFCF84E1DECF1F93182FE3DFCA
:107FE0001150E9F7F2DF1F91089580E0E8DFEE27F6
:047FF000FF270994CA
:027FFE00040479
:00000001FF
